{
	"data": {
		"bytecode": {
			"linkReferences": {},
			"object": "608060405234801561000f575f80fd5b5061028b8061001d5f395ff3fe608060405234801561000f575f80fd5b5060043610610029575f3560e01c8063188b85b41461002d575b5f80fd5b61004760048036038101906100429190610128565b61005d565b6040516100549190610162565b60405180910390f35b5f805f5b8381116100e7575f5b60018561007791906101a8565b8110156100c5575f6040518060400160405280600281526020017f4869000000000000000000000000000000000000000000000000000000000000815250905050808060010191505061006a565b5080826100d291906101db565b915080806100df9061020e565b915050610061565b5080915050919050565b5f80fd5b5f819050919050565b610107816100f5565b8114610111575f80fd5b50565b5f81359050610122816100fe565b92915050565b5f6020828403121561013d5761013c6100f1565b5b5f61014a84828501610114565b91505092915050565b61015c816100f5565b82525050565b5f6020820190506101755f830184610153565b92915050565b7f4e487b71000000000000000000000000000000000000000000000000000000005f52601160045260245ffd5b5f6101b2826100f5565b91506101bd836100f5565b92508282039050818111156101d5576101d461017b565b5b92915050565b5f6101e5826100f5565b91506101f0836100f5565b92508282019050808211156102085761020761017b565b5b92915050565b5f610218826100f5565b91507fffffffffffffffffffffffffffffffffffffffffffffffffffffffffffffffff820361024a5761024961017b565b5b60018201905091905056fea264697066735822122028a1a8bc7cf7a8883ff527b2971e392b17947b97b351553fb315c43fa9464bb464736f6c63430008160033",
			"opcodes": "PUSH1 0x80 PUSH1 0x40 MSTORE CALLVALUE DUP1 ISZERO PUSH2 0xF JUMPI PUSH0 DUP1 REVERT JUMPDEST POP PUSH2 0x28B DUP1 PUSH2 0x1D PUSH0 CODECOPY PUSH0 RETURN INVALID PUSH1 0x80 PUSH1 0x40 MSTORE CALLVALUE DUP1 ISZERO PUSH2 0xF JUMPI PUSH0 DUP1 REVERT JUMPDEST POP PUSH1 0x4 CALLDATASIZE LT PUSH2 0x29 JUMPI PUSH0 CALLDATALOAD PUSH1 0xE0 SHR DUP1 PUSH4 0x188B85B4 EQ PUSH2 0x2D JUMPI JUMPDEST PUSH0 DUP1 REVERT JUMPDEST PUSH2 0x47 PUSH1 0x4 DUP1 CALLDATASIZE SUB DUP2 ADD SWAP1 PUSH2 0x42 SWAP2 SWAP1 PUSH2 0x128 JUMP JUMPDEST PUSH2 0x5D JUMP JUMPDEST PUSH1 0x40 MLOAD PUSH2 0x54 SWAP2 SWAP1 PUSH2 0x162 JUMP JUMPDEST PUSH1 0x40 MLOAD DUP1 SWAP2 SUB SWAP1 RETURN JUMPDEST PUSH0 DUP1 PUSH0 JUMPDEST DUP4 DUP2 GT PUSH2 0xE7 JUMPI PUSH0 JUMPDEST PUSH1 0x1 DUP6 PUSH2 0x77 SWAP2 SWAP1 PUSH2 0x1A8 JUMP JUMPDEST DUP2 LT ISZERO PUSH2 0xC5 JUMPI PUSH0 PUSH1 0x40 MLOAD DUP1 PUSH1 0x40 ADD PUSH1 0x40 MSTORE DUP1 PUSH1 0x2 DUP2 MSTORE PUSH1 0x20 ADD PUSH32 0x4869000000000000000000000000000000000000000000000000000000000000 DUP2 MSTORE POP SWAP1 POP POP DUP1 DUP1 PUSH1 0x1 ADD SWAP2 POP POP PUSH2 0x6A JUMP JUMPDEST POP DUP1 DUP3 PUSH2 0xD2 SWAP2 SWAP1 PUSH2 0x1DB JUMP JUMPDEST SWAP2 POP DUP1 DUP1 PUSH2 0xDF SWAP1 PUSH2 0x20E JUMP JUMPDEST SWAP2 POP POP PUSH2 0x61 JUMP JUMPDEST POP DUP1 SWAP2 POP POP SWAP2 SWAP1 POP JUMP JUMPDEST PUSH0 DUP1 REVERT JUMPDEST PUSH0 DUP2 SWAP1 POP SWAP2 SWAP1 POP JUMP JUMPDEST PUSH2 0x107 DUP2 PUSH2 0xF5 JUMP JUMPDEST DUP2 EQ PUSH2 0x111 JUMPI PUSH0 DUP1 REVERT JUMPDEST POP JUMP JUMPDEST PUSH0 DUP2 CALLDATALOAD SWAP1 POP PUSH2 0x122 DUP2 PUSH2 0xFE JUMP JUMPDEST SWAP3 SWAP2 POP POP JUMP JUMPDEST PUSH0 PUSH1 0x20 DUP3 DUP5 SUB SLT ISZERO PUSH2 0x13D JUMPI PUSH2 0x13C PUSH2 0xF1 JUMP JUMPDEST JUMPDEST PUSH0 PUSH2 0x14A DUP5 DUP3 DUP6 ADD PUSH2 0x114 JUMP JUMPDEST SWAP2 POP POP SWAP3 SWAP2 POP POP JUMP JUMPDEST PUSH2 0x15C DUP2 PUSH2 0xF5 JUMP JUMPDEST DUP3 MSTORE POP POP JUMP JUMPDEST PUSH0 PUSH1 0x20 DUP3 ADD SWAP1 POP PUSH2 0x175 PUSH0 DUP4 ADD DUP5 PUSH2 0x153 JUMP JUMPDEST SWAP3 SWAP2 POP POP JUMP JUMPDEST PUSH32 0x4E487B7100000000000000000000000000000000000000000000000000000000 PUSH0 MSTORE PUSH1 0x11 PUSH1 0x4 MSTORE PUSH1 0x24 PUSH0 REVERT JUMPDEST PUSH0 PUSH2 0x1B2 DUP3 PUSH2 0xF5 JUMP JUMPDEST SWAP2 POP PUSH2 0x1BD DUP4 PUSH2 0xF5 JUMP JUMPDEST SWAP3 POP DUP3 DUP3 SUB SWAP1 POP DUP2 DUP2 GT ISZERO PUSH2 0x1D5 JUMPI PUSH2 0x1D4 PUSH2 0x17B JUMP JUMPDEST JUMPDEST SWAP3 SWAP2 POP POP JUMP JUMPDEST PUSH0 PUSH2 0x1E5 DUP3 PUSH2 0xF5 JUMP JUMPDEST SWAP2 POP PUSH2 0x1F0 DUP4 PUSH2 0xF5 JUMP JUMPDEST SWAP3 POP DUP3 DUP3 ADD SWAP1 POP DUP1 DUP3 GT ISZERO PUSH2 0x208 JUMPI PUSH2 0x207 PUSH2 0x17B JUMP JUMPDEST JUMPDEST SWAP3 SWAP2 POP POP JUMP JUMPDEST PUSH0 PUSH2 0x218 DUP3 PUSH2 0xF5 JUMP JUMPDEST SWAP2 POP PUSH32 0xFFFFFFFFFFFFFFFFFFFFFFFFFFFFFFFFFFFFFFFFFFFFFFFFFFFFFFFFFFFFFFFF DUP3 SUB PUSH2 0x24A JUMPI PUSH2 0x249 PUSH2 0x17B JUMP JUMPDEST JUMPDEST PUSH1 0x1 DUP3 ADD SWAP1 POP SWAP2 SWAP1 POP JUMP INVALID LOG2 PUSH5 0x6970667358 0x22 SLT KECCAK256 0x28 LOG1 0xA8 0xBC PUSH29 0xF7A8883FF527B2971E392B17947B97B351553FB315C43FA9464BB46473 PUSH16 0x6C634300081600330000000000000000 "
		},
		"gasEstimates": {
			"creation": {
				"codeDepositCost": "130200",
				"executionCost": "175",
				"totalCost": "130375"
			},
			"external": {
				"sum(uint256)": "infinite"
			}
		},
		"methodIdentifiers": {
			"sum(uint256)": "188b85b4"
		}
	},
	"abi": [
		{
			"inputs": [
				{
					"internalType": "uint256",
					"name": "z",
					"type": "uint256"
				}
			],
			"name": "sum",
			"outputs": [
				{
					"internalType": "uint256",
					"name": "",
					"type": "uint256"
				}
			],
			"stateMutability": "pure",
			"type": "function"
		}
	]
}